{
  "contractName": "PilarNFT",
  "abi": [
    {
      "inputs": [],
      "stateMutability": "nonpayable",
      "type": "constructor"
    },
    {
      "anonymous": false,
      "inputs": [
        {
          "indexed": true,
          "internalType": "address",
          "name": "owner",
          "type": "address"
        },
        {
          "indexed": true,
          "internalType": "address",
          "name": "approved",
          "type": "address"
        },
        {
          "indexed": true,
          "internalType": "uint256",
          "name": "tokenId",
          "type": "uint256"
        }
      ],
      "name": "Approval",
      "type": "event"
    },
    {
      "anonymous": false,
      "inputs": [
        {
          "indexed": true,
          "internalType": "address",
          "name": "owner",
          "type": "address"
        },
        {
          "indexed": true,
          "internalType": "address",
          "name": "operator",
          "type": "address"
        },
        {
          "indexed": false,
          "internalType": "bool",
          "name": "approved",
          "type": "bool"
        }
      ],
      "name": "ApprovalForAll",
      "type": "event"
    },
    {
      "anonymous": false,
      "inputs": [
        {
          "indexed": true,
          "internalType": "address",
          "name": "from",
          "type": "address"
        },
        {
          "indexed": true,
          "internalType": "address",
          "name": "to",
          "type": "address"
        },
        {
          "indexed": true,
          "internalType": "uint256",
          "name": "tokenId",
          "type": "uint256"
        }
      ],
      "name": "Transfer",
      "type": "event"
    },
    {
      "inputs": [
        {
          "internalType": "address",
          "name": "to",
          "type": "address"
        },
        {
          "internalType": "uint256",
          "name": "tokenId",
          "type": "uint256"
        }
      ],
      "name": "approve",
      "outputs": [],
      "stateMutability": "nonpayable",
      "type": "function"
    },
    {
      "inputs": [
        {
          "internalType": "address",
          "name": "owner",
          "type": "address"
        }
      ],
      "name": "balanceOf",
      "outputs": [
        {
          "internalType": "uint256",
          "name": "",
          "type": "uint256"
        }
      ],
      "stateMutability": "view",
      "type": "function",
      "constant": true
    },
    {
      "inputs": [
        {
          "internalType": "uint256",
          "name": "tokenId",
          "type": "uint256"
        }
      ],
      "name": "getApproved",
      "outputs": [
        {
          "internalType": "address",
          "name": "",
          "type": "address"
        }
      ],
      "stateMutability": "view",
      "type": "function",
      "constant": true
    },
    {
      "inputs": [
        {
          "internalType": "address",
          "name": "owner",
          "type": "address"
        },
        {
          "internalType": "address",
          "name": "operator",
          "type": "address"
        }
      ],
      "name": "isApprovedForAll",
      "outputs": [
        {
          "internalType": "bool",
          "name": "",
          "type": "bool"
        }
      ],
      "stateMutability": "view",
      "type": "function",
      "constant": true
    },
    {
      "inputs": [],
      "name": "name",
      "outputs": [
        {
          "internalType": "string",
          "name": "",
          "type": "string"
        }
      ],
      "stateMutability": "view",
      "type": "function",
      "constant": true
    },
    {
      "inputs": [
        {
          "internalType": "uint256",
          "name": "tokenId",
          "type": "uint256"
        }
      ],
      "name": "ownerOf",
      "outputs": [
        {
          "internalType": "address",
          "name": "",
          "type": "address"
        }
      ],
      "stateMutability": "view",
      "type": "function",
      "constant": true
    },
    {
      "inputs": [
        {
          "internalType": "address",
          "name": "from",
          "type": "address"
        },
        {
          "internalType": "address",
          "name": "to",
          "type": "address"
        },
        {
          "internalType": "uint256",
          "name": "tokenId",
          "type": "uint256"
        }
      ],
      "name": "safeTransferFrom",
      "outputs": [],
      "stateMutability": "nonpayable",
      "type": "function"
    },
    {
      "inputs": [
        {
          "internalType": "address",
          "name": "from",
          "type": "address"
        },
        {
          "internalType": "address",
          "name": "to",
          "type": "address"
        },
        {
          "internalType": "uint256",
          "name": "tokenId",
          "type": "uint256"
        },
        {
          "internalType": "bytes",
          "name": "_data",
          "type": "bytes"
        }
      ],
      "name": "safeTransferFrom",
      "outputs": [],
      "stateMutability": "nonpayable",
      "type": "function"
    },
    {
      "inputs": [
        {
          "internalType": "address",
          "name": "operator",
          "type": "address"
        },
        {
          "internalType": "bool",
          "name": "approved",
          "type": "bool"
        }
      ],
      "name": "setApprovalForAll",
      "outputs": [],
      "stateMutability": "nonpayable",
      "type": "function"
    },
    {
      "inputs": [
        {
          "internalType": "bytes4",
          "name": "interfaceId",
          "type": "bytes4"
        }
      ],
      "name": "supportsInterface",
      "outputs": [
        {
          "internalType": "bool",
          "name": "",
          "type": "bool"
        }
      ],
      "stateMutability": "view",
      "type": "function",
      "constant": true
    },
    {
      "inputs": [],
      "name": "symbol",
      "outputs": [
        {
          "internalType": "string",
          "name": "",
          "type": "string"
        }
      ],
      "stateMutability": "view",
      "type": "function",
      "constant": true
    },
    {
      "inputs": [
        {
          "internalType": "uint256",
          "name": "index",
          "type": "uint256"
        }
      ],
      "name": "tokenByIndex",
      "outputs": [
        {
          "internalType": "uint256",
          "name": "",
          "type": "uint256"
        }
      ],
      "stateMutability": "view",
      "type": "function",
      "constant": true
    },
    {
      "inputs": [
        {
          "internalType": "address",
          "name": "owner",
          "type": "address"
        },
        {
          "internalType": "uint256",
          "name": "index",
          "type": "uint256"
        }
      ],
      "name": "tokenOfOwnerByIndex",
      "outputs": [
        {
          "internalType": "uint256",
          "name": "",
          "type": "uint256"
        }
      ],
      "stateMutability": "view",
      "type": "function",
      "constant": true
    },
    {
      "inputs": [],
      "name": "totalSupply",
      "outputs": [
        {
          "internalType": "uint256",
          "name": "",
          "type": "uint256"
        }
      ],
      "stateMutability": "view",
      "type": "function",
      "constant": true
    },
    {
      "inputs": [
        {
          "internalType": "address",
          "name": "from",
          "type": "address"
        },
        {
          "internalType": "address",
          "name": "to",
          "type": "address"
        },
        {
          "internalType": "uint256",
          "name": "tokenId",
          "type": "uint256"
        }
      ],
      "name": "transferFrom",
      "outputs": [],
      "stateMutability": "nonpayable",
      "type": "function"
    },
    {
      "inputs": [],
      "name": "mint",
      "outputs": [],
      "stateMutability": "nonpayable",
      "type": "function"
    },
    {
      "inputs": [
        {
          "internalType": "uint256",
          "name": "tokenId",
          "type": "uint256"
        }
      ],
      "name": "tokenURI",
      "outputs": [
        {
          "internalType": "string",
          "name": "",
          "type": "string"
        }
      ],
      "stateMutability": "pure",
      "type": "function",
      "constant": true
    }
  ],
  "bytecode": "0x60806040523480156200001157600080fd5b506040518060400160405280600881526020017f50696c61724e46540000000000000000000000000000000000000000000000008152506040518060400160405280600481526020017f504e465400000000000000000000000000000000000000000000000000000000815250816000908051906020019062000096929190620000b8565b508060019080519060200190620000af929190620000b8565b505050620001cd565b828054620000c69062000197565b90600052602060002090601f016020900481019282620000ea576000855562000136565b82601f106200010557805160ff191683800117855562000136565b8280016001018555821562000136579182015b828111156200013557825182559160200191906001019062000118565b5b50905062000145919062000149565b5090565b5b80821115620001645760008160009055506001016200014a565b5090565b7f4e487b7100000000000000000000000000000000000000000000000000000000600052602260045260246000fd5b60006002820490506001821680620001b057607f821691505b60208210811415620001c757620001c662000168565b5b50919050565b612dce80620001dd6000396000f3fe608060405234801561001057600080fd5b506004361061010b5760003560e01c806342842e0e116100a257806395d89b411161007157806395d89b41146102ca578063a22cb465146102e8578063b88d4fde14610304578063c87b56dd14610320578063e985e9c5146103505761010b565b806342842e0e1461021e5780634f6ccce71461023a5780636352211e1461026a57806370a082311461029a5761010b565b80631249c58b116100de5780631249c58b146101aa57806318160ddd146101b457806323b872dd146101d25780632f745c59146101ee5761010b565b806301ffc9a71461011057806306fdde0314610140578063081812fc1461015e578063095ea7b31461018e575b600080fd5b61012a60048036038101906101259190611c15565b610380565b6040516101379190611c5d565b60405180910390f35b6101486103fa565b6040516101559190611d11565b60405180910390f35b61017860048036038101906101739190611d69565b61048c565b6040516101859190611dd7565b60405180910390f35b6101a860048036038101906101a39190611e1e565b610511565b005b6101b2610629565b005b6101bc61063c565b6040516101c99190611e6d565b60405180910390f35b6101ec60048036038101906101e79190611e88565b610649565b005b61020860048036038101906102039190611e1e565b6106a9565b6040516102159190611e6d565b60405180910390f35b61023860048036038101906102339190611e88565b61074e565b005b610254600480360381019061024f9190611d69565b61076e565b6040516102619190611e6d565b60405180910390f35b610284600480360381019061027f9190611d69565b6107df565b6040516102919190611dd7565b60405180910390f35b6102b460048036038101906102af9190611edb565b610891565b6040516102c19190611e6d565b60405180910390f35b6102d2610949565b6040516102df9190611d11565b60405180910390f35b61030260048036038101906102fd9190611f34565b6109db565b005b61031e600480360381019061031991906120a9565b6109f1565b005b61033a60048036038101906103359190611d69565b610a53565b6040516103479190611d11565b60405180910390f35b61036a6004803603810190610365919061212c565b610a84565b6040516103779190611c5d565b60405180910390f35b60007f780e9d63000000000000000000000000000000000000000000000000000000007bffffffffffffffffffffffffffffffffffffffffffffffffffffffff1916827bffffffffffffffffffffffffffffffffffffffffffffffffffffffff191614806103f357506103f282610b18565b5b9050919050565b6060600080546104099061219b565b80601f01602080910402602001604051908101604052809291908181526020018280546104359061219b565b80156104825780601f1061045757610100808354040283529160200191610482565b820191906000526020600020905b81548152906001019060200180831161046557829003601f168201915b5050505050905090565b600061049782610bfa565b6104d6576040517f08c379a00000000000000000000000000000000000000000000000000000000081526004016104cd9061223f565b60405180910390fd5b6004600083815260200190815260200160002060009054906101000a900473ffffffffffffffffffffffffffffffffffffffff169050919050565b600061051c826107df565b90508073ffffffffffffffffffffffffffffffffffffffff168373ffffffffffffffffffffffffffffffffffffffff16141561058d576040517f08c379a0000000000000000000000000000000000000000000000000000000008152600401610584906122d1565b60405180910390fd5b8073ffffffffffffffffffffffffffffffffffffffff166105ac610c66565b73ffffffffffffffffffffffffffffffffffffffff1614806105db57506105da816105d5610c66565b610a84565b5b61061a576040517f08c379a000000000000000000000000000000000000000000000000000000000815260040161061190612363565b60405180910390fd5b6106248383610c6e565b505050565b61063a3361063561063c565b610d27565b565b6000600880549050905090565b61065a610654610c66565b82610f01565b610699576040517f08c379a0000000000000000000000000000000000000000000000000000000008152600401610690906123f5565b60405180910390fd5b6106a4838383610fdf565b505050565b60006106b483610891565b82106106f5576040517f08c379a00000000000000000000000000000000000000000000000000000000081526004016106ec90612487565b60405180910390fd5b600660008473ffffffffffffffffffffffffffffffffffffffff1673ffffffffffffffffffffffffffffffffffffffff168152602001908152602001600020600083815260200190815260200160002054905092915050565b610769838383604051806020016040528060008152506109f1565b505050565b600061077861063c565b82106107b9576040517f08c379a00000000000000000000000000000000000000000000000000000000081526004016107b090612519565b60405180910390fd5b600882815481106107cd576107cc612539565b5b90600052602060002001549050919050565b6000806002600084815260200190815260200160002060009054906101000a900473ffffffffffffffffffffffffffffffffffffffff169050600073ffffffffffffffffffffffffffffffffffffffff168173ffffffffffffffffffffffffffffffffffffffff161415610888576040517f08c379a000000000000000000000000000000000000000000000000000000000815260040161087f906125da565b60405180910390fd5b80915050919050565b60008073ffffffffffffffffffffffffffffffffffffffff168273ffffffffffffffffffffffffffffffffffffffff161415610902576040517f08c379a00000000000000000000000000000000000000000000000000000000081526004016108f99061266c565b60405180910390fd5b600360008373ffffffffffffffffffffffffffffffffffffffff1673ffffffffffffffffffffffffffffffffffffffff168152602001908152602001600020549050919050565b6060600180546109589061219b565b80601f01602080910402602001604051908101604052809291908181526020018280546109849061219b565b80156109d15780601f106109a6576101008083540402835291602001916109d1565b820191906000526020600020905b8154815290600101906020018083116109b457829003601f168201915b5050505050905090565b6109ed6109e6610c66565b8383611246565b5050565b610a026109fc610c66565b83610f01565b610a41576040517f08c379a0000000000000000000000000000000000000000000000000000000008152600401610a38906123f5565b60405180910390fd5b610a4d848484846113b3565b50505050565b6060610a5e8261140f565b604051602001610a6e919061273a565b6040516020818303038152906040529050919050565b6000600560008473ffffffffffffffffffffffffffffffffffffffff1673ffffffffffffffffffffffffffffffffffffffff16815260200190815260200160002060008373ffffffffffffffffffffffffffffffffffffffff1673ffffffffffffffffffffffffffffffffffffffff16815260200190815260200160002060009054906101000a900460ff16905092915050565b60007f80ac58cd000000000000000000000000000000000000000000000000000000007bffffffffffffffffffffffffffffffffffffffffffffffffffffffff1916827bffffffffffffffffffffffffffffffffffffffffffffffffffffffff19161480610be357507f5b5e139f000000000000000000000000000000000000000000000000000000007bffffffffffffffffffffffffffffffffffffffffffffffffffffffff1916827bffffffffffffffffffffffffffffffffffffffffffffffffffffffff1916145b80610bf35750610bf282611570565b5b9050919050565b60008073ffffffffffffffffffffffffffffffffffffffff166002600084815260200190815260200160002060009054906101000a900473ffffffffffffffffffffffffffffffffffffffff1673ffffffffffffffffffffffffffffffffffffffff1614159050919050565b600033905090565b816004600083815260200190815260200160002060006101000a81548173ffffffffffffffffffffffffffffffffffffffff021916908373ffffffffffffffffffffffffffffffffffffffff160217905550808273ffffffffffffffffffffffffffffffffffffffff16610ce1836107df565b73ffffffffffffffffffffffffffffffffffffffff167f8c5be1e5ebec7d5bd14f71427d1e84f3dd0314c0f7b2291e5b200ac8c7c3b92560405160405180910390a45050565b600073ffffffffffffffffffffffffffffffffffffffff168273ffffffffffffffffffffffffffffffffffffffff161415610d97576040517f08c379a0000000000000000000000000000000000000000000000000000000008152600401610d8e906127b3565b60405180910390fd5b610da081610bfa565b15610de0576040517f08c379a0000000000000000000000000000000000000000000000000000000008152600401610dd79061281f565b60405180910390fd5b610dec600083836115da565b6001600360008473ffffffffffffffffffffffffffffffffffffffff1673ffffffffffffffffffffffffffffffffffffffff1681526020019081526020016000206000828254610e3c919061286e565b92505081905550816002600083815260200190815260200160002060006101000a81548173ffffffffffffffffffffffffffffffffffffffff021916908373ffffffffffffffffffffffffffffffffffffffff160217905550808273ffffffffffffffffffffffffffffffffffffffff16600073ffffffffffffffffffffffffffffffffffffffff167fddf252ad1be2c89b69c2b068fc378daa952ba7f163c4a11628f55a4df523b3ef60405160405180910390a4610efd600083836116ee565b5050565b6000610f0c82610bfa565b610f4b576040517f08c379a0000000000000000000000000000000000000000000000000000000008152600401610f4290612936565b60405180910390fd5b6000610f56836107df565b90508073ffffffffffffffffffffffffffffffffffffffff168473ffffffffffffffffffffffffffffffffffffffff161480610fc557508373ffffffffffffffffffffffffffffffffffffffff16610fad8461048c565b73ffffffffffffffffffffffffffffffffffffffff16145b80610fd65750610fd58185610a84565b5b91505092915050565b8273ffffffffffffffffffffffffffffffffffffffff16610fff826107df565b73ffffffffffffffffffffffffffffffffffffffff1614611055576040517f08c379a000000000000000000000000000000000000000000000000000000000815260040161104c906129c8565b60405180910390fd5b600073ffffffffffffffffffffffffffffffffffffffff168273ffffffffffffffffffffffffffffffffffffffff1614156110c5576040517f08c379a00000000000000000000000000000000000000000000000000000000081526004016110bc90612a5a565b60405180910390fd5b6110d08383836115da565b6110db600082610c6e565b6001600360008573ffffffffffffffffffffffffffffffffffffffff1673ffffffffffffffffffffffffffffffffffffffff168152602001908152602001600020600082825461112b9190612a7a565b925050819055506001600360008473ffffffffffffffffffffffffffffffffffffffff1673ffffffffffffffffffffffffffffffffffffffff1681526020019081526020016000206000828254611182919061286e565b92505081905550816002600083815260200190815260200160002060006101000a81548173ffffffffffffffffffffffffffffffffffffffff021916908373ffffffffffffffffffffffffffffffffffffffff160217905550808273ffffffffffffffffffffffffffffffffffffffff168473ffffffffffffffffffffffffffffffffffffffff167fddf252ad1be2c89b69c2b068fc378daa952ba7f163c4a11628f55a4df523b3ef60405160405180910390a46112418383836116ee565b505050565b8173ffffffffffffffffffffffffffffffffffffffff168373ffffffffffffffffffffffffffffffffffffffff1614156112b5576040517f08c379a00000000000000000000000000000000000000000000000000000000081526004016112ac90612afa565b60405180910390fd5b80600560008573ffffffffffffffffffffffffffffffffffffffff1673ffffffffffffffffffffffffffffffffffffffff16815260200190815260200160002060008473ffffffffffffffffffffffffffffffffffffffff1673ffffffffffffffffffffffffffffffffffffffff16815260200190815260200160002060006101000a81548160ff0219169083151502179055508173ffffffffffffffffffffffffffffffffffffffff168373ffffffffffffffffffffffffffffffffffffffff167f17307eab39ab6107e8899845ad3d59bd9653f200f220920489ca2b5937696c31836040516113a69190611c5d565b60405180910390a3505050565b6113be848484610fdf565b6113ca848484846116f3565b611409576040517f08c379a000000000000000000000000000000000000000000000000000000000815260040161140090612b8c565b60405180910390fd5b50505050565b60606000821415611457576040518060400160405280600181526020017f3000000000000000000000000000000000000000000000000000000000000000815250905061156b565b600082905060005b6000821461148957808061147290612bac565b915050600a826114829190612c24565b915061145f565b60008167ffffffffffffffff8111156114a5576114a4611f7e565b5b6040519080825280601f01601f1916602001820160405280156114d75781602001600182028036833780820191505090505b5090505b60008514611564576001826114f09190612a7a565b9150600a856114ff9190612c55565b603061150b919061286e565b60f81b81838151811061152157611520612539565b5b60200101907effffffffffffffffffffffffffffffffffffffffffffffffffffffffffffff1916908160001a905350600a8561155d9190612c24565b94506114db565b8093505050505b919050565b60007f01ffc9a7000000000000000000000000000000000000000000000000000000007bffffffffffffffffffffffffffffffffffffffffffffffffffffffff1916827bffffffffffffffffffffffffffffffffffffffffffffffffffffffff1916149050919050565b6115e583838361187b565b600073ffffffffffffffffffffffffffffffffffffffff168373ffffffffffffffffffffffffffffffffffffffff1614156116285761162381611880565b611667565b8173ffffffffffffffffffffffffffffffffffffffff168373ffffffffffffffffffffffffffffffffffffffff16146116665761166583826118c9565b5b5b600073ffffffffffffffffffffffffffffffffffffffff168273ffffffffffffffffffffffffffffffffffffffff1614156116aa576116a581611a36565b6116e9565b8273ffffffffffffffffffffffffffffffffffffffff168273ffffffffffffffffffffffffffffffffffffffff16146116e8576116e78282611b07565b5b5b505050565b505050565b60006117148473ffffffffffffffffffffffffffffffffffffffff16611b86565b1561186e578373ffffffffffffffffffffffffffffffffffffffff1663150b7a0261173d610c66565b8786866040518563ffffffff1660e01b815260040161175f9493929190612cdb565b6020604051808303816000875af192505050801561179b57506040513d601f19601f820116820180604052508101906117989190612d3c565b60015b61181e573d80600081146117cb576040519150601f19603f3d011682016040523d82523d6000602084013e6117d0565b606091505b50600081511415611816576040517f08c379a000000000000000000000000000000000000000000000000000000000815260040161180d90612b8c565b60405180910390fd5b805181602001fd5b63150b7a0260e01b7bffffffffffffffffffffffffffffffffffffffffffffffffffffffff1916817bffffffffffffffffffffffffffffffffffffffffffffffffffffffff191614915050611873565b600190505b949350505050565b505050565b6008805490506009600083815260200190815260200160002081905550600881908060018154018082558091505060019003906000526020600020016000909190919091505550565b600060016118d684610891565b6118e09190612a7a565b90506000600760008481526020019081526020016000205490508181146119c5576000600660008673ffffffffffffffffffffffffffffffffffffffff1673ffffffffffffffffffffffffffffffffffffffff168152602001908152602001600020600084815260200190815260200160002054905080600660008773ffffffffffffffffffffffffffffffffffffffff1673ffffffffffffffffffffffffffffffffffffffff168152602001908152602001600020600084815260200190815260200160002081905550816007600083815260200190815260200160002081905550505b6007600084815260200190815260200160002060009055600660008573ffffffffffffffffffffffffffffffffffffffff1673ffffffffffffffffffffffffffffffffffffffff16815260200190815260200160002060008381526020019081526020016000206000905550505050565b60006001600880549050611a4a9190612a7a565b9050600060096000848152602001908152602001600020549050600060088381548110611a7a57611a79612539565b5b906000526020600020015490508060088381548110611a9c57611a9b612539565b5b906000526020600020018190555081600960008381526020019081526020016000208190555060096000858152602001908152602001600020600090556008805480611aeb57611aea612d69565b5b6001900381819060005260206000200160009055905550505050565b6000611b1283610891565b905081600660008573ffffffffffffffffffffffffffffffffffffffff1673ffffffffffffffffffffffffffffffffffffffff168152602001908152602001600020600083815260200190815260200160002081905550806007600084815260200190815260200160002081905550505050565b6000808273ffffffffffffffffffffffffffffffffffffffff163b119050919050565b6000604051905090565b600080fd5b600080fd5b60007fffffffff0000000000000000000000000000000000000000000000000000000082169050919050565b611bf281611bbd565b8114611bfd57600080fd5b50565b600081359050611c0f81611be9565b92915050565b600060208284031215611c2b57611c2a611bb3565b5b6000611c3984828501611c00565b91505092915050565b60008115159050919050565b611c5781611c42565b82525050565b6000602082019050611c726000830184611c4e565b92915050565b600081519050919050565b600082825260208201905092915050565b60005b83811015611cb2578082015181840152602081019050611c97565b83811115611cc1576000848401525b50505050565b6000601f19601f8301169050919050565b6000611ce382611c78565b611ced8185611c83565b9350611cfd818560208601611c94565b611d0681611cc7565b840191505092915050565b60006020820190508181036000830152611d2b8184611cd8565b905092915050565b6000819050919050565b611d4681611d33565b8114611d5157600080fd5b50565b600081359050611d6381611d3d565b92915050565b600060208284031215611d7f57611d7e611bb3565b5b6000611d8d84828501611d54565b91505092915050565b600073ffffffffffffffffffffffffffffffffffffffff82169050919050565b6000611dc182611d96565b9050919050565b611dd181611db6565b82525050565b6000602082019050611dec6000830184611dc8565b92915050565b611dfb81611db6565b8114611e0657600080fd5b50565b600081359050611e1881611df2565b92915050565b60008060408385031215611e3557611e34611bb3565b5b6000611e4385828601611e09565b9250506020611e5485828601611d54565b9150509250929050565b611e6781611d33565b82525050565b6000602082019050611e826000830184611e5e565b92915050565b600080600060608486031215611ea157611ea0611bb3565b5b6000611eaf86828701611e09565b9350506020611ec086828701611e09565b9250506040611ed186828701611d54565b9150509250925092565b600060208284031215611ef157611ef0611bb3565b5b6000611eff84828501611e09565b91505092915050565b611f1181611c42565b8114611f1c57600080fd5b50565b600081359050611f2e81611f08565b92915050565b60008060408385031215611f4b57611f4a611bb3565b5b6000611f5985828601611e09565b9250506020611f6a85828601611f1f565b9150509250929050565b600080fd5b600080fd5b7f4e487b7100000000000000000000000000000000000000000000000000000000600052604160045260246000fd5b611fb682611cc7565b810181811067ffffffffffffffff82111715611fd557611fd4611f7e565b5b80604052505050565b6000611fe8611ba9565b9050611ff48282611fad565b919050565b600067ffffffffffffffff82111561201457612013611f7e565b5b61201d82611cc7565b9050602081019050919050565b82818337600083830152505050565b600061204c61204784611ff9565b611fde565b90508281526020810184848401111561206857612067611f79565b5b61207384828561202a565b509392505050565b600082601f8301126120905761208f611f74565b5b81356120a0848260208601612039565b91505092915050565b600080600080608085870312156120c3576120c2611bb3565b5b60006120d187828801611e09565b94505060206120e287828801611e09565b93505060406120f387828801611d54565b925050606085013567ffffffffffffffff81111561211457612113611bb8565b5b6121208782880161207b565b91505092959194509250565b6000806040838503121561214357612142611bb3565b5b600061215185828601611e09565b925050602061216285828601611e09565b9150509250929050565b7f4e487b7100000000000000000000000000000000000000000000000000000000600052602260045260246000fd5b600060028204905060018216806121b357607f821691505b602082108114156121c7576121c661216c565b5b50919050565b7f4552433732313a20617070726f76656420717565727920666f72206e6f6e657860008201527f697374656e7420746f6b656e0000000000000000000000000000000000000000602082015250565b6000612229602c83611c83565b9150612234826121cd565b604082019050919050565b600060208201905081810360008301526122588161221c565b9050919050565b7f4552433732313a20617070726f76616c20746f2063757272656e74206f776e6560008201527f7200000000000000000000000000000000000000000000000000000000000000602082015250565b60006122bb602183611c83565b91506122c68261225f565b604082019050919050565b600060208201905081810360008301526122ea816122ae565b9050919050565b7f4552433732313a20617070726f76652063616c6c6572206973206e6f74206f7760008201527f6e6572206e6f7220617070726f76656420666f7220616c6c0000000000000000602082015250565b600061234d603883611c83565b9150612358826122f1565b604082019050919050565b6000602082019050818103600083015261237c81612340565b9050919050565b7f4552433732313a207472616e736665722063616c6c6572206973206e6f74206f60008201527f776e6572206e6f7220617070726f766564000000000000000000000000000000602082015250565b60006123df603183611c83565b91506123ea82612383565b604082019050919050565b6000602082019050818103600083015261240e816123d2565b9050919050565b7f455243373231456e756d657261626c653a206f776e657220696e646578206f7560008201527f74206f6620626f756e6473000000000000000000000000000000000000000000602082015250565b6000612471602b83611c83565b915061247c82612415565b604082019050919050565b600060208201905081810360008301526124a081612464565b9050919050565b7f455243373231456e756d657261626c653a20676c6f62616c20696e646578206f60008201527f7574206f6620626f756e64730000000000000000000000000000000000000000602082015250565b6000612503602c83611c83565b915061250e826124a7565b604082019050919050565b60006020820190508181036000830152612532816124f6565b9050919050565b7f4e487b7100000000000000000000000000000000000000000000000000000000600052603260045260246000fd5b7f4552433732313a206f776e657220717565727920666f72206e6f6e657869737460008201527f656e7420746f6b656e0000000000000000000000000000000000000000000000602082015250565b60006125c4602983611c83565b91506125cf82612568565b604082019050919050565b600060208201905081810360008301526125f3816125b7565b9050919050565b7f4552433732313a2062616c616e636520717565727920666f7220746865207a6560008201527f726f206164647265737300000000000000000000000000000000000000000000602082015250565b6000612656602a83611c83565b9150612661826125fa565b604082019050919050565b6000602082019050818103600083015261268581612649565b9050919050565b600081905092915050565b50565b60006126a760008361268c565b91506126b282612697565b600082019050919050565b60006126c882611c78565b6126d2818561268c565b93506126e2818560208601611c94565b80840191505092915050565b7f2e6a736f6e000000000000000000000000000000000000000000000000000000600082015250565b600061272460058361268c565b915061272f826126ee565b600582019050919050565b60006127458261269a565b915061275182846126bd565b915061275c82612717565b915081905092915050565b7f4552433732313a206d696e7420746f20746865207a65726f2061646472657373600082015250565b600061279d602083611c83565b91506127a882612767565b602082019050919050565b600060208201905081810360008301526127cc81612790565b9050919050565b7f4552433732313a20746f6b656e20616c7265616479206d696e74656400000000600082015250565b6000612809601c83611c83565b9150612814826127d3565b602082019050919050565b60006020820190508181036000830152612838816127fc565b9050919050565b7f4e487b7100000000000000000000000000000000000000000000000000000000600052601160045260246000fd5b600061287982611d33565b915061288483611d33565b9250827fffffffffffffffffffffffffffffffffffffffffffffffffffffffffffffffff038211156128b9576128b861283f565b5b828201905092915050565b7f4552433732313a206f70657261746f7220717565727920666f72206e6f6e657860008201527f697374656e7420746f6b656e0000000000000000000000000000000000000000602082015250565b6000612920602c83611c83565b915061292b826128c4565b604082019050919050565b6000602082019050818103600083015261294f81612913565b9050919050565b7f4552433732313a207472616e736665722066726f6d20696e636f72726563742060008201527f6f776e6572000000000000000000000000000000000000000000000000000000602082015250565b60006129b2602583611c83565b91506129bd82612956565b604082019050919050565b600060208201905081810360008301526129e1816129a5565b9050919050565b7f4552433732313a207472616e7366657220746f20746865207a65726f2061646460008201527f7265737300000000000000000000000000000000000000000000000000000000602082015250565b6000612a44602483611c83565b9150612a4f826129e8565b604082019050919050565b60006020820190508181036000830152612a7381612a37565b9050919050565b6000612a8582611d33565b9150612a9083611d33565b925082821015612aa357612aa261283f565b5b828203905092915050565b7f4552433732313a20617070726f766520746f2063616c6c657200000000000000600082015250565b6000612ae4601983611c83565b9150612aef82612aae565b602082019050919050565b60006020820190508181036000830152612b1381612ad7565b9050919050565b7f4552433732313a207472616e7366657220746f206e6f6e20455243373231526560008201527f63656976657220696d706c656d656e7465720000000000000000000000000000602082015250565b6000612b76603283611c83565b9150612b8182612b1a565b604082019050919050565b60006020820190508181036000830152612ba581612b69565b9050919050565b6000612bb782611d33565b91507fffffffffffffffffffffffffffffffffffffffffffffffffffffffffffffffff821415612bea57612be961283f565b5b600182019050919050565b7f4e487b7100000000000000000000000000000000000000000000000000000000600052601260045260246000fd5b6000612c2f82611d33565b9150612c3a83611d33565b925082612c4a57612c49612bf5565b5b828204905092915050565b6000612c6082611d33565b9150612c6b83611d33565b925082612c7b57612c7a612bf5565b5b828206905092915050565b600081519050919050565b600082825260208201905092915050565b6000612cad82612c86565b612cb78185612c91565b9350612cc7818560208601611c94565b612cd081611cc7565b840191505092915050565b6000608082019050612cf06000830187611dc8565b612cfd6020830186611dc8565b612d0a6040830185611e5e565b8181036060830152612d1c8184612ca2565b905095945050505050565b600081519050612d3681611be9565b92915050565b600060208284031215612d5257612d51611bb3565b5b6000612d6084828501612d27565b91505092915050565b7f4e487b7100000000000000000000000000000000000000000000000000000000600052603160045260246000fdfea26469706673582212205998483fb9f1ad56af605d8931da21f1b6d78f116ddbb34ae3eda7ee2631810764736f6c634300080b0033",
  "immutableReferences": {},
  "source": "// SPDX-License-Identifier: MIT\r\n\r\npragma solidity 0.8.11;\r\n\r\nimport \"@openzeppelin/contracts/token/ERC721/extensions/ERC721Enumerable.sol\";\r\nimport \"@openzeppelin/contracts/utils/Strings.sol\";\r\n\r\ncontract PilarNFT is ERC721Enumerable {\r\n    constructor() ERC721(\"PilarNFT\", \"PNFT\") {}\r\n\r\n    function mint() public {\r\n        _mint(msg.sender, totalSupply());\r\n    }\r\n\r\n    function tokenURI(uint256 tokenId)\r\n        public\r\n        pure\r\n        override\r\n        returns (string memory)\r\n    {\r\n        return\r\n            string(\r\n                abi.encodePacked(\r\n                    \"\",\r\n                    Strings.toString(tokenId),\r\n                    \".json\"\r\n                )\r\n            );\r\n    }\r\n}",
  "sourcePath": "F:\\PilarNFT\\contracts\\PilarNFT.sol",
  "compiler": {
    "name": "solc",
    "version": "0.8.11+commit.d7f03943.Emscripten.clang"
  },
  "schemaVersion": "3.4.4",
  "updatedAt": "2022-02-24T10:49:56.839Z",
  "networkType": "ethereum",
  "devdoc": {
    "kind": "dev",
    "methods": {
      "approve(address,uint256)": {
        "details": "See {IERC721-approve}."
      },
      "balanceOf(address)": {
        "details": "See {IERC721-balanceOf}."
      },
      "getApproved(uint256)": {
        "details": "See {IERC721-getApproved}."
      },
      "isApprovedForAll(address,address)": {
        "details": "See {IERC721-isApprovedForAll}."
      },
      "name()": {
        "details": "See {IERC721Metadata-name}."
      },
      "ownerOf(uint256)": {
        "details": "See {IERC721-ownerOf}."
      },
      "safeTransferFrom(address,address,uint256)": {
        "details": "See {IERC721-safeTransferFrom}."
      },
      "safeTransferFrom(address,address,uint256,bytes)": {
        "details": "See {IERC721-safeTransferFrom}."
      },
      "setApprovalForAll(address,bool)": {
        "details": "See {IERC721-setApprovalForAll}."
      },
      "supportsInterface(bytes4)": {
        "details": "See {IERC165-supportsInterface}."
      },
      "symbol()": {
        "details": "See {IERC721Metadata-symbol}."
      },
      "tokenByIndex(uint256)": {
        "details": "See {IERC721Enumerable-tokenByIndex}."
      },
      "tokenOfOwnerByIndex(address,uint256)": {
        "details": "See {IERC721Enumerable-tokenOfOwnerByIndex}."
      },
      "tokenURI(uint256)": {
        "details": "See {IERC721Metadata-tokenURI}."
      },
      "totalSupply()": {
        "details": "See {IERC721Enumerable-totalSupply}."
      },
      "transferFrom(address,address,uint256)": {
        "details": "See {IERC721-transferFrom}."
      }
    },
    "version": 1
  },
  "userdoc": {
    "kind": "user",
    "methods": {},
    "version": 1
  }
}